:020000040800F2
:1000000040220020A50A0008A90E0008AB0E000837
:10001000C30E0008C50E0008C70E0008000000004F
:10002000000000000000000000000000C90E0008F1
:10003000CB0E0008000000004F1C0008BB1B00088E
:10004000BF0A0008BF0A0008BF0A0008BF0A00086C
:10005000BF0A0008BF0A0008BF0A0008BF0A00085C
:10006000BF0A0008BF0A0008BF0A0008BF0A00084C
:10007000BF0A0008BF0A0008BF0A0008BF0A00083C
:10008000BF0A0008BF0A0008BF0A0008BF0A00082C
:10009000BF0A0008BF0A0008BF0A0008BF0A00081C
:1000A000BF0A0008BF0A0008BF0A0008BF0A00080C
:1000B000BF0A0008BF0A0008BF0A0008BF0A0008FC
:1000C000BF0A0008BF0A0008BF0A0008BF0A0008EC
:1000D000BF0A0008CD0E0008090F00083B0F0008FA
:1000E000BF0A0008BF0A0008BF0A000800F002F8B3
:1000F00000F068F80AA090E8000C82448344AAF15A
:100100000107DA4501D100F05DF8AFF2090EBAE857
:100110000F0013F0010F18BFFB1A43F0010318473B
:10012000804E0000A04E00000A444FF0000C10F872
:10013000013B13F0070408BF10F8014B1D1108BF65
:1001400010F8015B641E05D010F8016B641E01F805
:10015000016BF9D113F0080F1EBF10F8014BAD1C55
:100160000C1B09D16D1E58BF01F801CBFAD505E073
:1001700014F8016B01F8016B6D1EF9D59142D6D3CD
:10018000704700000023002400250026103A28BFF5
:1001900078C1FBD8520728BF30C148BF0B607047F9
:1001A000702904F0FB80642904F08880782904F029
:1001B000E880732904F0C482002070471FB51FBD7A
:1001C00010B510BD04F020FB1146FFF7F7FF01F05A
:1001D00075FC04F03EFB03B4FFF7F2FF03BC04F030
:1001E00043FB0000684670472849084328490860D7
:1001F000704770B50F23C47801780122F4B1244C04
:100200002468457804F4E064C4F5E064240AC4F189
:100210000406E3408478B5401C402C4301F1E02102
:10022000230181F80034007800F01F018A40400962
:10023000800000F1E020C0F8002170BD01F01F0037
:1002400082404809800000F1E020C0F8802170BDA4
:10025000104A114001430E48001F016070470C4ACC
:10026000121D0029116801D0014300E08143116093
:1002700070474FF0E0210428086903D020F0040003
:100280000861704740F00400FAE700000000FA053A
:100290000CED00E080FFFF1F0D49086070470C491E
:1002A000486070470A498860704709494AF6AA20A1
:1002B0000860704706494CF6CC4008607047044A15
:1002C00001460020D2680A4200D001207047000099
:1002D0000030004010B501210C07204600F076F9EF
:1002E0002046BDE81040002100F070B921490862A5
:1002F00070472049086170471F4A116821F0E001EA
:100300000143116070471B49C1F8A00070471A4BA8
:100310001A6822F0030202431A601848026842F089
:1003200004020260012905D020BF016821F0040108
:100330000160704730BFF8E70F48016841F00401E1
:100340000160016841F0020101600C48016841F060
:100350000401016030BF7047074A0146002052681F
:100360000A4200D00120704703490A6842EA80002F
:100370000860704700000E420070004010ED00E081
:10038000A448016841F0010101604168A24A11409E
:1003900041600168A14A11400160016821F4802197
:1003A0000160416821F4FE0141604FF41F0181604A
:1003B000704798490A6822F480320A600A6822F479
:1003C00080220A60B0F5803F07D0B0F5802F03D1BE
:1003D000086840F4A02008607047086840F4803046
:1003E000F9E70246002053098A49012B0AD0022B63
:1003F0000AD0496A02F01F02012393400B4200D049
:10040000012070470968F5E7096AF3E718B500208D
:100410004FF4A06400903120FFF7E3FF0099491CDE
:100420000091A14201D00028F5D03120FFF7D9FF7B
:10043000002800D0012018BD76490A6822F0F80291
:1004400042EAC00008607047754908607047714A09
:100450005368084323F47C13184350607047704975
:10046000086670476B4A516821F0030101435160EF
:1004700070476848406800F00C007047654A516852
:1004800021F0F001014351607047624A516821F444
:10049000E0610143516070475E494A6822F460524E
:1004A00042EAC000486070475A4A0029517A01D098
:1004B000014300E08143517270475949C1F8D800A7
:1004C0007047544A516821F44041014351607047DC
:1004D0005049002281F8202081F82020012802D0F4
:1004E000042802D1052081F8200070474D4908609A
:1004F000704748490A6A02430A62704749494439C9
:100500000860704730B543494A6812F00C03464A08
:1005100003D0042B01D0082B21D002604A680F239E
:10052000424C03EA1212A35C0268DA4042604B6854
:10053000072505EA1323E35C22FA03F383604B6883
:1005400005EAD323E35CDA40C2604968032303EA87
:100550009131231F595CB2FBF1F1016130BD4A6852
:100560004B6802F470124FF0020413F4803F04EB66
:10057000924202D04B689B0301D52D4B00E02A4BE1
:100580005A43CAE7234A0029516901D0014300E0D8
:100590008143516170471F4A0029916901D001438D
:1005A00000E08143916170471A4A0029D16901D066
:1005B000014300E08143D1617047164A0029D168A8
:1005C00001D0014300E08143D1607047114A002906
:1005D000116901D0014300E0814311617047114965
:1005E0004039086070470E49C86470470949C871AE
:1005F00070470848416A41F0807141627047054A7E
:100600000146002092680A4200D00120704701494B
:1006100088727047001002400000FFF8FFFFF6FEEE
:10062000000042428004424200127A00040000208E
:1006300000093D00C54910B588420AD101218C034B
:100640002046FFF7BAFF2046BDE810400021FFF723
:10065000B4BFBF49884202D101214C0410E0BD491A
:10066000884202D101218C040AE0BB49884202D1B0
:100670000121CC0404E0B94988420AD101210C05CA
:100680002046FFF7A3FF2046BDE810400021FFF7FA
:100690009DBF10BD30B50446008A85B00D464CF6AE
:1006A000FF710840E98801432182A1894EF6F310C9
:1006B0000140A8882A8910436A890A431043A0810F
:1006C000A08A4FF6FF410840A9890143A1826846EC
:1006D000FFF718FF9D48844201D1039800E002987B
:1006E000A189090400EBC00101EB0010296801D5C4
:1006F000490000E08900B0FBF1F06422B0FBF2F1A8
:1007000009010B096FF018056B4300EB8300A38907
:100710001D044FF0320306D503EBC000B0FBF2F02E
:1007200000F0070005E003EB0010B0FBF2F000F072
:100730000F000843208105B030BD4FF41651016011
:1007400000218180C18001810C224281818170471A
:1007500010B5038A4FF2FF0213400A884C882243E7
:100760008C88C9880C4322431A43028210BD0021A1
:10077000018041808180C18070470029818902D039
:1007800041F4005101E021F400518181704710B51E
:10079000C1F3421301F01F040121A140012B07D036
:1007A000022B07D01430002A026805D00A4304E067
:1007B0000C30F8E71030F6E78A43026010BD002ADB
:1007C000828A01D00A4300E08A4382827047028A0B
:1007D00022F00F020282028A0A4302827047828953
:1007E00022F40062828182890A4382817047002953
:1007F000818902D041F0020101E021F002018181F2
:100800007047028A22F020020282028A0A43028290
:1008100070470029018A02D041F4804101E021F4AF
:1008200080410182704702881206FCD5C1F308019D
:10083000818070478088C0F308007047818941F04B
:10084000010181817047028BD2B20283028B42EA9E
:10085000012101837047028B02F47F420283028BE5
:100860000A43028370470029818A02D041F02001A7
:1008700001E021F02001818270470029818A02D0A5
:1008800041F0100101E021F0100181827047002940
:10089000818A02D041F0080101E021F00801818243
:1008A00070470029818902D041F4004101E0C1F381
:1008B0000E01818170470029818A02D041F40061D4
:1008C00001E021F4006181827047828A22F00402F3
:1008D0008282828A0A43828270470029818A02D0FA
:1008E00041F0020101E021F00201818270470246DD
:1008F000002012880A4200D001207047C9430180BD
:10090000704730B501F01F0201240025C1F34213E6
:1009100004FA02F2012B0FD0022B0FD0838A4FEA88
:1009200011210088134204FA01F400EA040001D006
:1009300000B10125284630BD8389F0E7038AEEE740
:100940000A0A01219140C9430180704700380140E3
:100950000044004000480040004C0040005000406F
:100960000CB50021484801910091026842F48032A0
:1009700002604FF4A063026802F400320092019A10
:10098000521C0192009A12B9019A9A42F3D102685C
:10099000920333D5012100913C490A6842F01002CC
:1009A0000A600A6822F003020A600A6842F0020242
:1009B0000A604168416041684160416841F480617A
:1009C0004160416821F47C114160416841F4E811C3
:1009D0004160016841F08071016001688901FCD5C6
:1009E000416821F003014160416841F0020141602A
:1009F0004168C1F381010229FAD10CBD00910CBDFF
:100A00002148016841F0010101604168204A11401C
:100A1000416001681F4A11400160016821F4802192
:100A20000160416821F4FE0141604FF41F018160C3
:100A300096E7154910B54868174A10F00C03174897
:100A400003D0042B01D0082B0AD002604968134A56
:100A5000C1F30311121D515C0268CA40026010BD4F
:100A60004A684B6802F470124FF0020413F4803F9E
:100A700004EB924202D04B689B0301D5084B00E087
:100A8000054B5A43E1E700000010024000200240FD
:100A90000000FFF8FFFFF6FE00127A0014000020AD
:100AA00000093D000948804709480047FEE7FEE786
:100AB000FEE7FEE7FEE7FEE7FEE7FEE7FEE7FEE70E
:100AC00004480549054A064B70470000010A000822
:100AD000ED000008401C002040220020401E0020A5
:100AE000401E0020914910B5884206D10121042002
:100AF000FFF763FD002104203BE08D49884206D1C9
:100B000001210820FFF759FD0021082031E0894923
:100B1000884206D101211020FFF74FFD002110204F
:100B200027E08549884206D101212020FFF745FDB5
:100B3000002120201DE08149884206D1012140206A
:100B4000FFF73BFD0021402013E07D49884206D19C
:100B500001218020FFF731FD0021802009E0794943
:100B600088420AD1841501212046FFF726FD002185
:100B70002046BDE81040FFF720BD10BD10B5012193
:100B80000846FFF71AFD0021BDE810400120FFF7DD
:100B900014BDF0B5CA78002502F00F03D20601D5C6
:100BA0008A7813430A784FF00F0E12F0FF0F4FF0C0
:100BB00001021DD0D0F800400F8802FA05F6374038
:100BC000B74211D14FEA850C0EFA0CF724EA070759
:100BD00003FA0CF43C43CF78282F02D0482F02D0E0
:100BE00002E0466100E006616D1C082DE4D304605C
:100BF0000C88FF2C1ED944685FF0000606F1080738
:100C000002FA07F50F882F40AF420FD14FEA860C4A
:100C10000EFA0CF7BC4303FA0CF73C43CF78282FAD
:100C200000D14561CF78482F00D10561761C082E90
:100C3000E4D34460F0BD4FF6FF7101800221817062
:100C40000421C17070470246002092680A4200D019
:100C500001207047806880B2704702460020D26849
:100C60000A4200D001207047C06880B2704701611D
:100C70007047416170470AB1016170474161704737
:100C8000C160704741F48032826181618261816913
:100C9000806970472C4B10B51A684FF6807422405B
:100CA00042EA00100843186010BD2849C861704727
:100CB000F0B5254C002801DAE36900E06368420DD5
:100CC000120185B2C0F301579540C0F30346032FCC
:100CD00005D0C2020AD50322B240934307E023F0B5
:100CE0007062636823F07063636002E0AB4343F0BB
:100CF000706201B12A43002801DAE261F0BD62604E
:100D0000F0BD10B58A0721F003040F49130F2144E9
:100D10000F228C689A4094438C608A689840024302
:100D20008A6010BD0949C1F8DC0070470008014025
:100D3000000C014000100140001401400018014067
:100D4000001C014000200140000001400000204242
:100D50002DE9F0413C4D3B4C28686968AA68206049
:100D60006160A260287B207305F10D010F220F4600
:100D700004F10D0003F0F1FB28686968AA68E061DE
:100D800021626262287B04F11C0630730F2239460F
:100D900004F1290003F0E1FB28686968AA68A063F0
:100DA000E1632264287B04F1380528730F22394659
:100DB00004F1450003F0D1FB207C40F001002074D9
:100DC000307C40F001003074287C40F00100287431
:100DD000BDE8F08170B5054608680C46A8B104F17D
:100DE0000C0000220121064600F030F8207CC007EC
:100DF00004D00A2D02D121680D2088472168E8B26D
:100E000088470121304600F041F8284670BD10B5F2
:100E100004464068002808D001206073E18904F18D
:100E20001802A06801F03EFE606910BD002808D0DD
:100E3000427B002A05D0002242734161806801F0A4
:100E4000BDBE70472C0100202C00002037B5154690
:100E50004FEA000400F0DAFE21789DF804201142E8
:100E600008D121789DF804201143217000F0D2FEB2
:100E700000203EBD00F0CEFE012002F0D1F96D1E33
:100E8000ADB2E7D3002DE5D101203EBD13B5044638
:100E900000F0BCFE21789DF8042091432170BDE84C
:100EA0001C4000F0B7BE00007047FFF79BF90446F6
:100EB0004FF47A75204600F088FB284600F066F86B
:100EC000F8E7FEE7FEE7FEE77047704770B5274892
:100ED0000588001D048800F0E4FFA80610D5244D05
:100EE0002146286848B1FFF79EFCE1B2214800F096
:100EF000D5FA28B10020286002E01F48FFF796FFCE
:100F0000BDE8704000F0D7BF70B51C4C2688201D8E
:100F1000058800F0C6FFB0060BD5154829460068C5
:100F2000A04203D11148FFF77EFC02E01448FFF70E
:100F30007DFFBDE8704000F0BEBF70B5114C268843
:100F4000201D058800F0ADFFB0060BD508482946E6
:100F50000068A04203D10548FFF765FC02E00A489B
:100F6000FFF764FFBDE8704000F0A5BF0038014006
:100F700028000020800000202C01002000440040B8
:100F800048000020004800406400002010B50446DE
:100F900000F03CFE40E000BF00BF00BF00BF00BF4C
:100FA00000BF00BF00BF00BF00BF00BF00BF00BF49
:100FB00000BF00BF00BF00BF00BF00BF00BF00BF39
:100FC00000BF00BF00BF00BF00BF00BF00BF00BF29
:100FD00000BF00BF00BF00BF00BF00BF00BF00BF19
:100FE00000BF00BF00BF00BF00BF00BF00BF00BF09
:100FF00000BF00BF00BF00BF00BF00BF00BF00BFF9
:1010000000BF00BF00BF00BF00BF00BF00BF00BFE8
:1010100000BF00BF00BF00BF641EBCD2BDE81040CF
:1010200000F0F8BD70B5044612484FF47A750078A8
:1010300048B11148007830B91048007818B905E077
:101040002846FFF7A3FF641EFAD270BD4FF47A70F2
:101050004443B4FBF5F0BDE8704002F0E1B870B570
:1010600004464FF47A7502E02846FFF7DBFF641E62
:10107000FAD270BD930000208E0000208F00002067
:1010800030B585B004460D466846FFF73BFACB48BD
:10109000844201D1039800E00298B0FBF5F0208172
:1010A00005B030BD30B5058985B004466846FFF708
:1010B00029FAC248844201D1039800E00298B0FBAB
:1010C000F5F0EDE770B586B0012144F20100FFF7BD
:1010D00062FA01210420FFF75EFA00210420FFF7E5
:1010E000E7FD4FF40070ADF8000018208DF8030004
:1010F000B34E03248DF8024069463046FFF749FDA0
:101100003015ADF8000048208DF8030069463046E0
:10111000FFF73FFDB515ADF8005010208DF8030026
:101120008DF8024069463046FFF733FD29463046C8
:10113000FFF79FFD00244FF496400190ADF80C405E
:101140000C209E4DADF80840ADF80E00ADF80A40F9
:10115000ADF8104001A92846FFF79CFA012240F2A1
:1011600025512846FFF713FB01212846FFF705FB11
:1011700025208DF8140001208DF815008DF81640FB
:101180008DF8170005A8FFF734F8002001F00FFCD8
:101190008C49886006B070BD70B504468948001F50
:1011A0000068002814D1864E4FF4807529463046D9
:1011B000FFF75DFD2146814C2046FFF734FB208878
:1011C0004006FCD529463046BDE87040FFF751BDCA
:1011D00070BD10B57948FFF72DFBC0B210BD30B51A
:1011E00087B001217848FFF7DFF901210420FFF7DC
:1011F000D2F900210820FFF75BFD0420ADF80000C4
:1012000018208DF803006E4D03248DF802406946C6
:101210002846FFF7BEFC0820ADF8000048208DF8F6
:10122000030069462846FFF7B4FC0220ADF8000031
:1012300010208DF803008DF8024069462846FFF71C
:10124000A8FC02212846FFF714FD00244FF4E130EA
:101250000190ADF80C400C205C4DADF80840ADF8A5
:101260000E00ADF80A40ADF8104001A92846FFF77E
:1012700011FA012240F225512846FFF788FA012190
:101280002846FFF77AFA26208DF8140001208DF801
:1012900015008DF816408DF8170005A8FEF7A9FF78
:1012A000002001F084FB47491C31886007B030BD45
:1012B00070B505464348454C001F0068A04211D058
:1012C0003F4E02213046FFF7D2FC29462046FFF769
:1012D000AAFA20884006FCD53046BDE870400221BD
:1012E000FFF7C7BC70BD10B53848FFF7A3FAC0B20E
:1012F00010BD30B587B001213548FFF755F9012100
:101300002820FFF748F94FF48060ADF8100018204E
:101310008DF8130003202F4C8DF8120004A92046ED
:10132000FFF737FCE014ADF8100048208DF81300EB
:1013300004A92046FFF72DFC00244FF4E130009073
:10134000ADF808400C20244DADF80440ADF80A007B
:10135000ADF80640ADF80C4069462846FFF79AF90B
:10136000012240F225512846FFF711FA01212846B3
:10137000FFF703FA27208DF8140001208DF81500DF
:101380008DF816408DF8170005A8FEF732FF0020F3
:1013900001F00DFB0B493831886087E701460948A9
:1013A000001F02680C48824201D0FFF73CBA704728
:1013B00010B50948FFF73EFAC0B210BD0038014031
:1013C000000801402C000020010002000044004001
:1013D00001000400000C01400048004010B545F237
:1013E0005550FEF759FF0620FEF759FFFEF75DFF47
:1013F000BDE81040FEF75EBF10B59C2100FB01F474
:10140000B4F5805F0AD245F25550FEF745FF2046FD
:10141000FEF748FFBDE81040FEF747BF10BDFEF7DE
:1014200044BF00004FF47A72B0FBF2F0A84AB0FB60
:10143000F2F30B80B0FBF2F302FB13004FF4616296
:10144000B0FBF2F38B70B0FBF2F302FB13003C2213
:10145000B0FBF2F3CB70B0FBF2F302FB13000871A8
:1014600070479C48007810F0FF019B4800D0012194
:101470004170704730B5984A1278002A0DD000228A
:1014800008E08B1A0344845C13F8015D8554521CF8
:101490001C70D2B2B2EB510FF3D330BD70B504461D
:1014A0000268007941F020010025135C43F020031D
:1014B0008B420CD1401C2071104603F02FF821798B
:1014C000884202D12571012070BD002070BD2571B8
:1014D000FBE782A003F00CF80120FFF7C0FD834872
:1014E0000168834A01F4E06111430160BFF3408F5A
:1014F000FEE710B57FA002F0FBFF0120FFF7AFFD74
:10150000BDE81040FEF718BF70B50D4608B102F0F7
:10151000EFFF7AA002F076FE7C4802F0E5FFC4B24D
:101520007B490A2002F0E2FF44F02000792803D032
:101530006E2803D0284670BD012070BD002070BD0C
:1015400000B585B06846FEF7DDFF72A0009902F095
:1015500059FE75A0019902F055FE78A0029902F09B
:1015600051FE7BA0039902F04DFE7EA0049902F08B
:1015700049FE05B000BD2DE9F041154613460C4665
:101580000A46014600267CA002F03CFE82A002F042
:10159000AFFF90A002F0ACFF13E031469CA002F038
:1015A00031FE0F2716F1100614F8011B9AA002F065
:1015B00029FE6D1E01D07F1EF6D255490A2002F089
:1015C00095FF002DE9D1BDE8F08170B594A002F03F
:1015D0008FFF9A4801689AA002F014FE9E48017895
:1015E0009EA002F00FFEA3480178A3A002F00AFE1D
:1015F000A74CA8A0216802F005FEAC480178ACA079
:1016000002F000FEB0480178B0A002F0FBFDB54842
:101610000178B5A002F0F6FDB9480178B9A002F052
:10162000F1FDBEA002F0EEFDC14E00257AA0715D75
:1016300002F0E8FD6D1C082DF8D335490A2002F0B0
:1016400055FFBCA002F054FF2068416CC1A002F01D
:10165000D9FD2068418AC5A002F0D4FD206890F829
:101660002A10C8A002F0CEFD206890F82810CBA068
:1016700002F0C8FD20688168CEA002F0C3FD20689A
:10168000C0688100D1A002F0BDFD20680168D5A02E
:1016900002F0B8FDBDE870401D490A2002F026BFE7
:1016A00038B501210420FEF776FF10208DF80300E5
:1016B00002208DF80200C402D04DADF8004069460A
:1016C0002846FFF766FA21462846FFF7D0FA38BDCC
:1016D00080510100844800088A000020526573652B
:1016E0007453797374656D2E2E2E00000CED00E09E
:1016F0000400FA0548616C742E000000C8B7B6A853
:101700003F2028592F4E29203A2000002C0100208C
:1017100048010020535953434C4B203A2025313087
:101720006420487A0A00000048434C4B2020203AAD
:10173000202531306420487A0A00000050434C4B89
:101740003120203A202531306420487A0A000000F8
:1017500050434C4B3220203A202531306420487AC7
:101760000A000000414443434C4B203A20253130CD
:101770006420487A0A0000004E616D653A202573A6
:10178000202C2041743A202570202C2053697A6542
:101790003A2025640A00000020202020202020205C
:1017A000202030302030312030322030332030348F
:1017B0002030352030362030372030382030392066
:1017C000304120304220304320304420304520300A
:1017D000460000002D2D2D2D2D2D2D2D2D2D2D2DA7
:1017E0002D2D2D2D2D2D2D2D2D2D2D2D2D2D2D2D29
:1017F0002D2D2D2D2D2D2D2D2D2D2D2D2D2D2D2D19
:101800002D2D2D2D2D2D2D2D2D2D2D2D2D0000008F
:10181000253038583A20000025303258200000008A
:101820002D2D2D2D2D2D2D5B75636F732067726F00
:1018300062616C5D2D2D2D2D2D2D2D009800002029
:101840004F53437478537743747220202020203DF7
:101850002025640A00000000940000204F535461CA
:10186000736B4374722020202020203D2025640AC1
:1018700000000000900000204F535072696F4375C4
:10188000722020202020203D2025640A0000000036
:10189000AC0000204F535443424375722020202057
:1018A0002020203D20307825700A00009100002083
:1018B0004F535072696F4869676852647920203DC0
:1018C0002025640A000000008F0000204F534C6F59
:1018D000636B4E657374696E6720203D2025640A32
:1018E000000000008E0000204F53496E744E657357
:1018F00074696E672020203D2025640A00000000E6
:10190000920000204F5352647947727020202020AB
:101910002020203D20253032580A00004F535264C9
:101920007954626C202020202020203D20000000DF
:10193000C00000202D2D2D2D2D2D2D5B6375727275
:10194000656E74207461736B5D2D2D2D2D2D2D2DE5
:10195000000000004F535443424E616D652020202B
:101960002020203D2025730A000000004F535443DF
:1019700042496420202020202020203D2025640A88
:10198000000000004F535443425072696F202020E2
:101990002020203D2025640A000000004F535443BE
:1019A00042537461742020202020203D2025640AA9
:1019B000000000004F5354434253746B426F7474E1
:1019C0006F6D203D20307825700A00004F5354433E
:1019D0004253746B53697A652020203D2025640AA8
:1019E000000000004F5354434253746B50747220F4
:1019F0002020203D20307825700A0000000801409A
:101A0000704770477047704770477047704770471E
:101A100010B516490A2002F069FD154802F068FD6C
:101A2000144802F065FD144802F062FD134802F00C
:101A30005FFD13480188134802F0E4FBBDE8104045
:101A4000114802F055BD10B5FFF73CFBFFF7C7FB8F
:101A5000FFF74FFCFFF77CF9FFF7DAFF0BA002F06E
:101A600047FDBDE81040FFF7FCBC00004801002026
:101A7000004C0008484C0008904C0008D84C000866
:101A800088000020704B0008B84B0008496E69744C
:101A900069616C697A696E6720446576696365205F
:101AA0002E2E2E0010B500214FF00060FEF7D0FB67
:101AB000BDE810404FF4A060FEF796BB00B587B0BC
:101AC000FFF7F0FF0F20FFF797FCFFF787FC00F010
:101AD00092F94FF400720292032100200B4BCDE9E2
:101AE0000301CDE9000303460146094A094801F014
:101AF0001CF98DF8140020B905AA07A1002001F0F7
:101B000037FA00F04EFA07B0002000BDB00F0020F9
:101B1000AC170020D53300087461736B5F73746178
:101B20007274000070477047FFF76ABFFFF769BF24
:101B3000FFF768BFFFF768BF4FF080731360131F94
:101B40001860A2F108006FF001030360001F4FF05E
:101B500012330360001F4FF003330360001F4FF088
:101B600002330360001F5B100360001F0160001F51
:101B70004FF011310160001F19010160001F4FF08B
:101B800009310160001FD9000160001F4FF00731CB
:101B90000160001F4FF006310160001F4FF005315A
:101BA0000160980042F83C0D10467047FFF72DBFCA
:101BB000FFF72CBFFFF72BBF704710B500F026F8DA
:101BC000114A1178491C117000F024F800F014FA41
:101BD000BDE8104000F06FB900B585B06846FEF76B
:101BE00091FC00984FF47A71B0FBF1F14FF0E020D6
:101BF000491E4161016941F005010161016941F03E
:101C00000201016105B000BD8E000020EFF31080DD
:101C100072B6704780F3108870471D484FF0FF017F
:101C20000170002080F309881A48012101701A48C8
:101C30004FF08051016062B6FEE717484FF08051C7
:101C40000160704714484FF080510160704772B6D0
:101C5000EFF3098028B1203880E8F00F0F490968B8
:101C6000086000B50E4880475DF804EB0D480E494A
:101C70000A78027009480D490A680260106890E805
:101C8000F00F203080F309884EF0040E62B67047E2
:101C900022ED00E09300002004ED00E0AC00002005
:101CA000AD1B00089000002091000020B40000202F
:101CB0000146002002E0401CC0B2491C0A78002AFC
:101CC000F9D1704770B50546FF480E461446807836
:101CD00008B1112009E02878012809D0022807D08E
:101CE000032805D0042803D001201070002070BD07
:101CF000FFF78CFF034668693060FFF7D9FF0546A0
:101D00001846FFF787FF00202070284670BD70B589
:101D10000546ED480E461446807808B1122009E0C9
:101D20002878012808D0022806D0032804D00428E7
:101D300002D00120107070BDFFF768FF6E61FFF7E1
:101D400069FF0020207070BD7CB5E04D002469461D
:101D5000204601F06FF958B955F8240040B1012828
:101D600006D0D0E9021201EB8201C163019901643E
:101D7000641CE4B23F2CEAD97CBDD34C02E0C820FD
:101D800001F04EFA60780028F9D0642160690025DE
:101D9000B0FBF1F0606118B92570FF2001F095F9F2
:101DA000FFF734FFE169C4E90615FFF733FFD4E913
:101DB0000510B0FBF1F0C0F164002070FFF7BAFE2F
:101DC000FFF7C2FF642001F02BFAE9E7BE4C00BF29
:101DD000FFF71CFFE169491CE161FFF71BFFFFF7FB
:101DE000A7FEF5E7002203E0491E00F8012B89B2A7
:101DF0000029F9D1704770B586B0FFF793FEB2485D
:101E0000002404638470C4700472C471C460C4612B
:101E10008461446144708471214600F13402545459
:101E2000491CC9B20829FAD304714471846204625E
:101E300000F042FA00F01BFA00F0FEFA00F085FD17
:101E40008026A348CDE90106A04A03254FF6FF707E
:101E50003F23121F00210090AFF28F00CDE9034510
:101E600000F063FF05AA9BA13F2001F081F89D4887
:101E7000CDE90106964A4FF6FE703E23121F00215F
:101E80000090AFF20910CDE9034500F04EFF05AA1E
:101E900095A13E2001F06CF806B0BDE87040FFF758
:101EA00042BE8949C879012804D18878FF2801D227
:101EB000401C8870704770B5834CE079012822D1AE
:101EC000FFF7A4FE0546A07820B1401E10F0FF00E9
:101ED000A07013D1E07888B900F01DFA7B486179D1
:101EE00050F82100A0622279914207D0016B491C71
:101EF0000163E068401CE060FFF7A4FE2846BDE8EF
:101F00007040FFF787BE70BD10B56F4CE0790128B7
:101F10000CD1FFF77BFEA17821B9E178FF2901D22E
:101F2000491CE170BDE81040FFF774BE10BD70B5EC
:101F3000FFF76CFE644C0546A07898B9E07888B944
:101F400000F0E9F96149607951F82010A162227925
:101F5000904207D0086B401C0863E068401CE060BA
:101F6000FFF76BFE2846BDE87040FFF753BE10B583
:101F7000554CE079012813D1FFF748FEE17831B1E3
:101F8000491E11F0FF01E17001D1A17819B1BDE83E
:101F90001040FFF73FBEFFF73DFEBDE81040C6E72B
:101FA00010BD10B5484CE07900280CD100F0B3F911
:101FB00060794649207151F82000A0622062BDE896
:101FC0001040FFF72ABE10BD10B5022001F028F91D
:101FD000FFF71CFE3C4C0021E161FFF71BFE642073
:101FE00001F01EF9FFF712FEE169616101216170E4
:101FF000BDE81040FFF70EBE70B5FFF7DBFDFFF741
:1020000005FE314D296B491C2963FFF703FEE87972
:1020100001282FD1EC6A29E0FFF7F8FD616A11B3BE
:10202000491E61621FD194F8281011F0370F05D0B6
:1020300001F0C80184F82810012100E0002184F893
:10204000291094F8281009070DD494F82E10AA79B5
:102050001143A9711C4994F82C20343194F82D6057
:102060008B5C33438B546469FFF7D4FD94F82A00EA
:102070003F28D1D170BD40F223107047704710B592
:1020800090F82C2090F82D408B18DA7AA243DA725F
:1020900004D18A7A90F82E0082438A7210BDF0B57E
:1020A0000E460146847A1448045D0D190027ED7A26
:1020B000405D00EBC400C5B2044850F82500C0E9FB
:1020C000086790F8286019E08C0000206007002065
:1020D0006005002075432F4F532D49492049646CFA
:1020E000650000006003002075432F4F532D4949C0
:1020F000205374617400000086480008964380F8FD
:10210000286080F8293032070BD4894A90F82E30A5
:10211000967933439371343290F82D60135D3343D5
:102120001355FFF7ACFF2846F0BD30B5804900F1EC
:102130000B020B6A43F81C0F1C7C5B7CA55C1D43E7
:10214000A5540A6A837A92F82E402343837292F848
:102150002C0001F1340492F82D50235CAB4323543E
:1021600004D192F82E2088799043887130BD0022E6
:10217000827211464318491CC9B2DA720829F9D390
:10218000704705E011F8013B521E00F8013B92B286
:10219000002AF7D170472DE9F05F9846DDE90ABAC9
:1021A00091460D460746FFF731FD614E746A002CDB
:1021B00059D0616910347162FFF72CFD44F8105C4E
:1021C000A776002525766576656144F804BC44E968
:1021D00003A90C982080A4F80280E577FA082277FA
:1021E00007F00701012000FA02F2E176A2778840A9
:1021F0006077E56025612562A56265624DA0E562B4
:10220000C4E90C500020103C04EB8001401C8D649C
:1022100010F0FF00F8D02046FFF7CAFC2046FFF779
:1022200083FCFFF7F3FC0146434840F82740F06A7F
:10223000C4E9050500B18461F46294F82E00B27916
:102240001043B0713A4814F82C2F34306478835C12
:1022500023438354307A401C30720846FFF7DAFC7F
:102260000020BDE8F09FFFF7D5FC4220F9E710B54C
:102270004FF4F0713148FFF7B5FD00202F490346B8
:10228000421C00EB400094B201EBC00004EB44049C
:1022900001EBC4040370446029A4446190B2132884
:1022A000EED300EB400001EBC00025A203704360B9
:1022B00042611F48016110BD10B54FF4D161214842
:1022C000FFF790FD4FF480711B48FFF78BFD1D4A0F
:1022D0000020411C00EB400404EB0010CBB203EBE8
:1022E000430402EB800004EB031302EB830343611E
:1022F00013A34364C8B21528EBD300EB400101EBF4
:10230000001002EB80000EA30021436441610848E5
:102310004262C16210BD06490B4A01F1340388795B
:10232000105C1B5CD25C02EBC0004871704700007F
:102330008C0000203F00000060070020800100208A
:102340003F00000060080020864800082DE9F041A9
:102350001F4690460E460446FFF758FC0146444887
:1023600005680DB16A6802600846FFF753FC1DB1AD
:10237000731E214600220AE05A2038700020BDE872
:10238000F08100BF01EB080008600146521C9A4230
:10239000F8D3002008602E61EE602C60C5E901488A
:1023A00038702846EBE770B50E460446FFF72EFC62
:1023B0000146206958B16568401E2A686260206144
:1023C0000846FFF727FC00203070284670BD0846FD
:1023D000FFF720FC5D203070002070BD70B50D4609
:1023E0000446FFF713FCD4E903128A4203D3FFF734
:1023F00011FC5E2070BD6168296065602169491C1F
:102400002161FFF707FC002070BD70B50C46054642
:10241000FFF7FCFB2968216069686160A968A16019
:10242000E968E16029692161FFF7F4FBD4E9030160
:10243000401A6061002070BD10B564210D48FFF79F
:10244000D1FC0C49002000BF00EB800201EB8202AE
:10245000401C02F1140380B253600428F4D300EB53
:10246000800001EB8000002242600148016010BD45
:10247000C8000020E80E002070B5054600780C4624
:10248000022803D001200870002070BDFFF7BEFBBA
:102490006A680146D08A70B11369181D10611D6801
:1024A000D38A5B1ED3829368984201D15068106131
:1024B0000020207002E01F20207000250846FFF752
:1024C000A9FB284670BD2DE9F0410746FB48884628
:1024D000007810B10020BDE8F081FFF797FBF84EBF
:1024E00034680CB161683160FFF794FB14B3FFF7F7
:1024F0008DFBF4490D68BDB12A680A60FFF78AFBBD
:1025000007EB8800C5E90170EF602F61A5F8148022
:102510000020E882022121702081EBA065606061CB
:102520002046FFF724FE05E0316861603460FFF764
:1025300071FB00242046CEE72DE9F04704460078E1
:1025400088461546022801D0012003E0DB480078C8
:1025500010B10F2010701DE0FFF758FB0746A07A5E
:1025600008B1012600E000265FEA0800DFF8548386
:10257000DFF84CA34FF0000906D001282AD03846D6
:10258000FFF748FB072004E03EB13846FFF742FB67
:10259000492028702046BDE8F087CBA060616168C3
:1025A000D8F800204E460A60C8F8001084F8009061
:1025B000DAF800106160A4F808903846CAF80040C4
:1025C000FFF728FB2E7022E0002304221946204644
:1025D000FFF765FDA07A0028F6D1BBA060616068B6
:1025E000D8F800200260C8F8000084F80090DAF8FB
:1025F00000206260A4F80890C8463846CAF8004037
:10260000FFF708FB0EB1FFF792FC85F80080002071
:10261000C1E710B50446FFF7F9FA01466068426861
:10262000C26002610022C2820846FFF7F3FA00206E
:1026300010BD2DE9F0470646007889461546022868
:1026400001D0012008E09D48007808B1022003E095
:102650009E48007818B10D20107000209BE7FFF70E
:10266000D5FA074670680024C18A81B10269111D3C
:1026700001611668C28A521EC2828268914201D1EB
:10268000416801613846FFF7C5FA2C7035E0DFF884
:102690004082D8F8000010F8281F41F004010170B2
:1026A000447040F8049C3046FFF73FFD3846FFF782
:1026B000B1FAFFF73CFCFFF7A9FA0746D8F800008B
:1026C00090F8291039B1022908D03146FFF7D7FC1C
:1026D00000260A2004E0066A2C7002E000260E2084
:1026E0002870D8F8000080F8284080F8294040F889
:1026F0001C4F44603846FFF78DFA30464BE72DE912
:10270000F0410F460546017801201646022901D006
:10271000107028E0FFF77AFA8046A87AF0B100241A
:10272000012F0FD00223042200212846FFF7B7FC17
:1027300001244046FFF76EFAFFF7F9FB0E203070D8
:102740002046C8E60223042200212846FFF7A7FC02
:10275000641CA87AE4B20028F4D1EAE74046FFF707
:1027600059FA002030700020B5E670B504460078B4
:102770000E46022801D0012070BDFFF747FA05463A
:10278000A07A58B10023042231462046FFF787FC87
:102790002846FFF73FFAFFF7CAFB19E06068C18AD5
:1027A000828A914204D32846FFF734FA1E2070BD76
:1027B000C1680A1DC2600E60C18A491CC182D0E98D
:1027C00002128A4201D14168C1602846FFF722FA0D
:1027D000002070BD70B5044600780E46022801D076
:1027E000012070BDFFF712FA0546A07A58B1002308
:1027F000042231462046FFF752FC2846FFF70AFA2A
:10280000FFF795FB18E06068C18A828A914204D381
:102810002846FFF7FFF91E2070BD4268016991420A
:1028200001D181680161091F01610E60C18A491CE3
:10283000C1822846FFF7EEF9002070BD2DE9F04176
:102840000746007814460D46022801D0012042E6D2
:10285000FFF7DCF90646B87AD0B1E00709D00023CB
:10286000042229463846FFF71AFCB87A0028F6D128
:1028700005E00023042229463846FFF710FC3046C5
:10288000FFF7C8F9600701D4FFF751FB002022E6EB
:102890007B68D88A998A884204D33046FFF7BAF910
:1028A0001E2018E6A00715D559681869884201D17D
:1028B00098681861001F1861056015E08E000020FF
:1028C0009C000020CC0000203F0000008F00002072
:1028D000AC000020D868011DD9600560D3E9020171
:1028E000814201D15868D860D88A401CD8823046CD
:1028F000FFF790F9CAE770B5054600780C46022844
:1029000001D0012070BDFFF781F90346A87A207439
:1029100005F10B0004F108025FF00001491C10F8FA
:10292000016BC9B202F8016B0829F7D36868C18A44
:1029300009B1016909682160C18AA180808AE080AB
:102940001846FFF767F9002070BD10B560210D48EB
:10295000FFF748FA0B4A0020411C8BB200EB400005
:1029600003EB430302EBC30342F8303088B2032881
:10297000F2D300EB4000002142F830100248026020
:1029800010BD00004C0F0020CC00002070B50546A3
:102990000078032801D0002070BDFFF737F92C899B
:1029A0000CB1611E2981FFF735F9204670BD70B565
:1029B0000546B448007808B1002070BDFFF726F93D
:1029C000B1490C680CB162680A60FFF723F94CB199
:1029D00003202070258100206060ACA0606120464B
:1029E000FFF7C5FB204670BD2DE9F047044600788F
:1029F00088461546032801D0012003E0A14800784D
:102A000010B10F2010701BE0FFF700F90746A07A05
:102A100008B1012600E000265FEA0800DFF86892AE
:102A20004FF0000806D0012824D03846FFF7F2F80E
:102A3000072004E03EB13846FFF7ECF84920287043
:102A40002046BDE8F08791A0606184F80080D9F845
:102A500000106160A4F8088046463846C9F8004076
:102A6000FFF7D8F82E701BE00023012219462046FC
:102A7000FFF715FBA07A0028F6D184A0606184F8E6
:102A80000080D9F800206260A4F808803846C9F8B0
:102A90000040FFF7BFF80EB1FFF749FA85F8008054
:102AA0000020CEE72DE9F047064600788946144617
:102AB000032801D0012008E07248007808B1022004
:102AC00003E07348007810B10D201070B9E7FFF7EC
:102AD0009DF807463089002530B1401E30813846C8
:102AE000FFF798F82570ACE7DFF8A881D8F8000068
:102AF00010F8281F41F001010170457040F8049C56
:102B00003046FFF712FB3846FFF784F8FFF70FFA5D
:102B1000FFF77CF80746D8F8000090F8291031B18B
:102B2000022906D03146FFF7AAFA0A2002E02570F2
:102B300001E00E202070D8F8000080F8285080F8BE
:102B40002950C5613846BDE8F047FFF763B82DE965
:102B5000F0410F460546017801201646032901D0B1
:102B6000107029E0FFF752F88046A87AF8B10024E7
:102B7000012F10D00223012200212846FFF78FFAEF
:102B800001244046FFF746F8FFF7D1F90E203070D8
:102B90002046BDE8F0810223012200212846FFF7EC
:102BA0007EFA641CA87AE4B20028F4D1E9E7404632
:102BB000FFF730F8002030700020EAE770B50446D7
:102BC0000078032801D0012070BDFFF71FF80546EB
:102BD000A07A58B10023012219462046FFF75FFA78
:102BE0002846FFF717F8FFF7A2F909E020894FF60A
:102BF000FF71884206D2401C20812846FFF70AF860
:102C0000002070BD2846FFF705F8332070BD70B571
:102C1000054600780C46032801D0012070BDFEF760
:102C2000F5FF0346A87AA072A21C05F10B00002153
:102C3000491C10F8016BC9B202F8016B0829F7D3DF
:102C4000288920801846FEF7E5FF002070BD70B58A
:102C5000044600780E461546032802D00120107065
:102C600070BDFEF7D3FF00212970218939B9A17AFF
:102C700029B149212970BDE87040FEF7CBBF2681FC
:102C8000F9E700008E0000209C0000203F000000BB
:102C90008F000020AC0000202DE9FE431C461546A5
:102CA0000F468046FEF7B2FFF749097821B1FEF7DB
:102CB000B1FF3C20BDE8FE83F44E56F8241019B154
:102CC000FEF7A8FF2820F5E7012146F82410FEF7BB
:102CD000A1FF00232A4639464046FEF72DFF002576
:102CE0000146009501952B462A4620460295FFF79E
:102CF00052FA070007D0FEF789FF46F82450FEF786
:102D000089FF3846D6E7E24800780128F9D1FFF775
:102D10000EF9F6E7D30707D0920705D50022002960
:102D200002D004C0491EFAE770472DE9FF4F83B077
:102D30001C46DDE91386DDE9119792468B46FEF7C6
:102D400065FFD149097829B1FEF764FF3C2007B03F
:102D5000BDE8F08FCD4D55F8241019B1FEF75AFF9C
:102D60002820F4E7012145F82410FEF753FF3246EE
:102D700039464846FFF7CEFF334652465946039838
:102D8000FEF7DAFE0097CDE9018601464A46204665
:102D9000109BFFF700FA060008D0FEF737FF00216E
:102DA00045F82410FEF736FF3046D0E7B8480078E3
:102DB0000128F9D1FFF7BBF8F6E72DE9F047064601
:102DC000B148007810B14020BDE8F0873F2E05D013
:102DD000FEF71CFF0746FF2E02D005E03E20F3E77A
:102DE000AC48006890F82A60DFF8A09259F82640B5
:102DF0005CB1012C0ED094F82C00A74A94F82D3029
:102E0000115C994311540AD00FE03846FEF702FFD7
:102E10004320D9E73846FEF7FDFE3D20D4E79F4822
:102E200094F82E20017891430170E16911B1204698
:102E3000FFF725F94FF00008C4F82480984D84F876
:102E4000288084F829802878FF2801D2401C287027
:102E50003846FEF7DFFEFFF711F9FEF7D7FE07460B
:102E6000287808B1401E28702046FEF75FFE8D4985
:102E70000878401E087049F82680A169404691B143
:102E800060694861D4E90501816187480168616131
:102E9000046086A060643846FEF7BCFE7C4800787B
:102EA000012806D007E0616988618149606908608E
:102EB000EBE7FFF73CF8002086E710B504463F2813
:102EC00012D0FF2C12D0FEF7A1FE01466F4850F839
:102ED0002400A8B1012818D03F2280F82F200846EE
:102EE000FEF798FE002010BD3E2010BDFEF78EFEBE
:102EF0006849096891F82F40FEF78CFE204610BD06
:102F00000846FEF787FE432010BD0846FEF782FE06
:102F10003D2010BD2DE9F04105465B480F461446A3
:102F2000007810B11120107020E0FEF76FFE064609
:102F3000FF2D03D15748006890F82A50534850F8A5
:102F40002500432570B101280CD0406C3860FEF795
:102F5000AFFE05463046FEF75DFE00202070284695
:102F6000BDE8F0813046FEF755FE25700020F7E7FA
:102F700070B5054644480E461446007810B112203C
:102F8000107070BDFEF742FE0146FF2D03D141488F
:102F9000006890F82A503D4850F82500432540B17C
:102FA000012806D046640846FEF734FE0020207053
:102FB00070BD0846FEF72EFE257070BD10B50446A4
:102FC000FEF724FE314951F8241059B101290DD0E2
:102FD00091F82820130729D512F0F70281F828204C
:102FE00008D009E0FEF716FE462010BDFEF712FEDF
:102FF000432010BD4A6A1AB1FEF70CFE002010BD36
:10300000264A91F82E3014782343137011F82C3F80
:10301000214A4978D45C0C43D454FEF7FBFD1C488C
:1030200000780128EAD1FEF782FFE7E7FEF7F2FD1C
:10303000442010BD2DE9F0410446002008600D46F3
:103040004860FEF7E3FD0146FF2C03D111480068FC
:1030500090F82A400D4850F8240058B1012809D0B2
:10306000027CD2070BD0D0E9027600240846FEF796
:10307000D1FD20E00846FEF7CDFD432070E708466D
:10308000FEF7C8FD45206BE78E000020600700209A
:1030900093000020AC000020C0000020920000201F
:1030A0008F00002094000020B00000203F000000AE
:1030B000B8000020641C01CF0028FBD0A0002860CD
:1030C000301B8000686000204AE770B50446FEF7B8
:1030D0009DFD03464E48FF2C006805D090F82A005D
:1030E000A04204D1012503E090F82A40FAE7002528
:1030F000484850F8240058B101280ED090F82C20F0
:10310000454C90F82D60A15CB143A1540AD00FE06A
:103110001846FEF77FFD482070BD1846FEF77AFD81
:10312000432070BD3D4990F82E400A78A2430A70B2
:1031300010F8281F41F0080101701846FEF76AFDDB
:103140000DB1FEF7F4FE002070BD70B50E460446CA
:10315000FEF75CFD0546FF2C03D12D48006890F872
:103160002A402C4850F8241051B101290DD04C228E
:103170003046FFF706F82846FEF74CFD002070BDEC
:103180002846FEF747FD292070BD2846FEF742FD80
:10319000432070BD70B515460E460446FEF736FD59
:1031A0000146FF2C0CD01B4850F8240000EB860091
:1031B000846C0846FEF72EFD00202870204670BD66
:1031C00013480068F2E72DE9F0411D4616460F4608
:1031D0000446FEF71BFD0146FF2C0CD00D4850F8AD
:1031E000240000BF00EB870086640846FEF712FD4E
:1031F00000202870B4E606480068F3E7044810B5DC
:103200000068FEF7D9FCBDE81040FF20D5E50000BE
:10321000AC00002060070020C000002092000020C9
:1032200070B5044651480078002821D150480078F4
:1032300000281DD1002C1BD0FEF7E8FC03464D48AA
:103240004D4D016891F82C0091F82D602A5CB24335
:103250002A5405D1494891F82E500278AA430270A9
:1032600018464C62FEF7D6FCBDE87040FEF75FBE24
:1032700070BD10B53D4C24780CB1552010BD3C4CB0
:1032800024780CB1322010BD4FF47A746343B3FB41
:10329000F4F34FF461646043C1EB011100EB810072
:1032A000104400EB4001C1EBC01003EBC000FFF77E
:1032B000B7FF002010BD10B504463F2801D32A20D7
:1032C00010BDFEF7A3FC01462D4850F8240090B134
:1032D000012810D0426A9AB10023436290F8282056
:1032E00012F0370F11D022F0370280F82820012287
:1032F00080F829200BE00846FEF78CFC432010BD27
:103300000846FEF787FC502010BD80F8293090F861
:103310002820120712D4194A90F82E30147823432B
:10332000137010F82C3F144A4078D45C0443D454F2
:103330000846FEF76FFCFEF7FAFD02E00846FEF7CE
:1033400069FC002010BD10B5FEF760FC0D490C684B
:10335000FEF760FC204610BD10B50446FEF756FC93
:1033600008490C60BDE81040FEF754BC8E000020F8
:103370008F000020AC000020C00000209200002040
:1033800060070020BC00002000B587B00022214863
:103390000DF1040C8DF8142003234FF480718CE898
:1033A0000F000120034600901B4A00211B48FFF735
:1033B000BCFC8DF8140020B905AA19A10120FFF763
:1033C000D7FD9DF81410002902D019A000F01AFFB3
:1033D00007B000BDFEF700FCFEF7F6FD0A20FDF782
:1033E00021FEFEF730FBFFF7CFFF6420FDF71AFE4A
:1033F0001AA000BF01F07CF81DA001F079F8254863
:1034000001F072F824A001F073F800F07BF82AA014
:10341000F0E70000B0170020AC1B0020D1340008FA
:103420007461736B5F66656564646F6700000000BC
:10343000437265617465207461736B205B746173A2
:103440006B5F66656564646F675D206661696C20AB
:103450002C206572726E6F3D25640A0074696E7966
:1034600053482069732072756E6E696E672E000076
:10347000707265737320616E79206B657920746F4B
:1034800020656E7465722074696E795348202E2E03
:103490002E0000002C0100203D3D3D3D5B20576586
:1034A0006C636F6D6520746F2074696E795348206A
:1034B0005D3D3D3D3D0000003D3D3D3D5B2045788F
:1034C00069742074696E795348205D3D3D3D3D002F
:1034D00005A001F00DF80A20FDF78EFFFDF79FFF14
:1034E0000520FDF7BCFDF9E77461736B5F666565E8
:1034F00064646F672069732072756E6E696E672EE3
:10350000000000002DE9F043404DB5B00027DFF882
:1035100000813D48AF620121286088F80010E9462B
:103520003CA000F06FFE01240EE000BF55F824001F
:10353000416839A000F066FEA86AA04203D037496E
:103540002F2000F0D3FF641CA86AA042EEDA34A05A
:1035500000F058FE0026334800F0C6FFC4B20D2C20
:103560000FD0092CF7D01B2CF5D0082C2ED0632EB1
:10357000F1DA2A49204600F0B9FF09F80640761C26
:10358000E9E709F8067025490A2000F0AFFF9DF829
:103590000000A0B18DF8C4708DF8647019AA31A92B
:1035A000684600F08CF831A800F0FFF8040002D063
:1035B000207801281AD031A91BA000F023FE98F82A
:1035C00000000028ACD135B0BDE8F083002EC2D099
:1035D00012490820761E00F089FF1049202000F0D3
:1035E00085FF0E49082000F081FFB4E7E06820B1B4
:1035F000204600F08FF80028E1D0A1680029DED035
:1036000019A88847DBE70000784A0008B01B0020B3
:10361000D00000205B2F000025730000480100202F
:103620005D2320002C01002074696E7953483A20F4
:1036300025733A204E6F20737563682066756E633C
:1036400074696F6E0A0000000246002005E000BFAA
:1036500052F8203041F82030401C936A8342F7DA58
:103660008B62704770B50D4608B1017809B1002032
:1036700070BD846805E04068294600F0B3FF20B1C2
:10368000241D20680028F6D170BD206870BD027826
:1036900022B1202A02D1401C0128F8D1002303E0E6
:1036A000401C01F8012B5B1C02782AB1202A03D0B0
:1036B0002F2A01D0092BF3DB00200870704710B5CA
:1036C0000023047884B1202C0BD1401C0128F8D1B0
:1036D00003E000BF01F8014B401C047824B1202C0A
:1036E00002D05B1C0A2BF5DB00230B701946047813
:1036F00074B1202C09D1401C0128F8D103E000BF8F
:1037000002F8014B401C047814B1491C5A29F7DB1C
:10371000137010BDFEB50746416835A000F072FD7C
:103720006E463BA000F06EFD00243C4800F0DCFE3D
:10373000C5B20D2D0ED0092DF7D0082D18D01B2D98
:1037400026D00B2CF1DA36492A2000F0CFFE355571
:10375000641CEAE70020305531490A2000F0C6FE1B
:103760006846F96800F03EFF0028DAD10120FEBD6E
:10377000002CDAD02A490820641E00F0B7FE284940
:10378000202000F0B3FE2649082000F0AFFECCE771
:1037900023490A2000F0AAFE0020FEBD08B10178EE
:1037A00009B1002070478068704770B51D4C054610
:1037B0002946A06A54F82000FFF754FF002816D1CC
:1037C000A16A194A54F82110914205D029461046A1
:1037D000FFF748FF00280AD1A16A144A54F82110C3
:1037E000914204D02946BDE8704010463AE770BDCA
:1037F00074696E7953483A2025733A207061737367
:10380000776F7264207665726974790A000000002F
:1038100070617373776F7264203A20002C0100206E
:1038200048010020B01B0020004A0008DC4A0008C4
:10383000F0B58FB00646040009D0207838B16D4647
:103840002F2807D029468F48FFF7FEFE37E00120DA
:103850000FB0F0BD8B48006800900020641C0A90F7
:103860002DE00BA92046FFF712FF87A10BA800F05F
:10387000B9FEF8B185A10BA800F0B4FE00280A98A3
:1038800009D055F820000BA9FFF7ECFE07001AD06D
:10389000387820B117E068B1401E0A900AE0F86855
:1038A00018B13846FFF736FF68B10A98401C0A90F5
:1038B00045F82070207870B1641C2F28FAD1207848
:1038C0000028CED107E0207828B1314670A000F062
:1038D00099FC0220BCE76B496846FFF7B5FE002063
:1038E000B6E770B5674C05008CB0A06A54F820604C
:1038F00013D0287888B169462046FFF7A5FE2846F0
:10390000FFF796FF10B101200CB070BDA06A5D49B1
:1039100054F820606846FFF797FEB4680CE0017821
:1039200011B1012907D102E0416861A001E04168BD
:1039300061A000F067FC241D20680028EFD16049D9
:103940000A2000F0D3FD0020DEE710B55C490C2012
:1039500000F0CCFD002010BDF0B54A4D064699B0F0
:10396000A86A002455F82000FFF718FF0090B6B1B0
:103970003078A0B10CA92846FFF766FE3046FFF765
:1039800057FF10B1012019B0F0BDA86A55F820000A
:10399000FFF704FF00903B490CA8FFF755FE6F4668
:1039A00057F82400056825B1001D47F824000026BB
:1039B0000CE08CB3641EF3E757F82600006808B1EA
:1039C00040A000E040A000F01DFC761CA642F3DB06
:1039D00057F824003A49006808B17C2000E06020D4
:1039E00000F084FD39A0696800F00CFCE86810B1B3
:1039F00038A000F007FC32490A2000F077FD287853
:103A00000028CDD1E8680028CAD12846FFF7C6FEB5
:103A1000641C47F82400C3E7FFE70020B3E770B554
:103A2000050029D02878002826D02846FFF7BDFEBB
:103A300004001BD02AA0616800F0E4FB2BA000F07A
:103A4000E1FB207858B12CA000F052FD2DA000F031
:103A5000D9FB206928B100BF00F04AFD0AE02CA084
:103A6000F2E717490A2000F041FD03E029462BA0A8
:103A700000F0C8FB002070BD33A0EDE73D490020F9
:103A800008707047B01B00202E0000002E2E000092
:103A900074696E7953483A2025733A204E6F20732B
:103AA000756368206469726563746F72790A0000D7
:103AB00025732F2009000000257320090000000055
:103AC000480100207C202000202020002D2D25737F
:103AD000000000005B6C6F636B65645D00000000BC
:103AE0004E616D6520203A2025730A005479706577
:103AF00020203A200000000046756E6374696F6EE6
:103B00000000000048656C7020203A200000000092
:103B10004469726563746F727900000074696E792C
:103B200053483A202573203A204E6F2073756368FE
:103B30002066756E6374696F6E206F72206469729F
:103B40006563746F72790A007479706520636F6DB4
:103B50006D616E6420686562696E64202C207375E7
:103B60006368206173203A202268656C702063646A
:103B700022000000D000002010B519A000F0B8FC11
:103B80001DA000F0B5FC26A000F0B2FC29A000F0BA
:103B9000AFFC36A000F0ACFC3BA000F0A9FC43A0B9
:103BA00000F0A6FC47A000F0A3FC50A000F0A0FC91
:103BB00054A000F09DFC002010BD10B555A000F0F1
:103BC00097FC002010BD10B558A000F091FC00201B
:103BD00010BD10B55EA000F08BFC002010BD0000F1
:103BE00048656C6C6F2C207468697320697320744D
:103BF000696E795348202100596F752063616E20EA
:103C000061646420796F757220636F6D6D616E649D
:103C100020617320796F75206C696B652E00000040
:103C200074727920746865736520636F6D6D616E61
:103C300064203A0040206C73202020203A206C69D8
:103C40007374206974656D7320696E206375727278
:103C5000656E74206F722073706563696669656450
:103C6000206469726563746F72792E00402063640A
:103C7000202020203A206368616E676520646972A5
:103C80006563746F72792E00402074726565202020
:103C90003A206C69737420616C6C206974656D7373
:103CA000206173206120747265652E004020636C72
:103CB00065616E203A20636C65616E207363726586
:103CC000656E2E0040207073202020203A207072F4
:103CD000696E7420616C6C207461736B20696E6610
:103CE0006F726D6174696F6E2E0000004020726506
:103CF000736574203A2072657365742073797374E8
:103D0000656D2E00402068616C7420203A20686147
:103D10006C742E004D79206E616D65206973205B97
:103D2000486576616B655F6C636A5D004D7920451F
:103D30002D6D61696C206973205B686576616B65C8
:103D40005F6C636A403132362E636F6D5D00000038
:103D50004D79205151206973205B35323730323034
:103D60003733305D0000000010B500212BA0FDF7B7
:103D7000CBFB08B1FDF7ADFB002010BD10B5002155
:103D80002AA0FDF7C1FB08B1FDF7B3FB002010BD71
:103D900070B586B0274800F0ABFB274800F0A8FBC1
:103DA000264800F0A5FB264E002400BF56F82450FC
:103DB000D5B1012D18D0E0B204A9FFF73BF9DDE938
:103DC00004100844059964225143B1FBF0F1059AAF
:103DD0006B6ACDE90030CDE9022195F82830214603
:103DE00018A06A6C00F00EFA641C3F2CDED9224841
:103DF00000F07EFB06B0002070BD2049204A886A92
:103E000051F82030934201D00A2801DB012070478D
:103E1000401C886241F8202000207047526573657D
:103E2000742053797374656D0000000048616C74F0
:103E300000000000C04E0008504F0008084F000866
:103E4000600700207C20253264207C253138737C7B
:103E500020202025316420207C20253764207C20F0
:103E6000253764207C20253764207C20202533647E
:103E7000252520207C0A0000784E0008B01B002079
:103E8000184B000810B53E4801783EA000F0BAF982
:103E90004148017841A000F0B5F940F2231145A056
:103EA00000F0B0F94848016848A000F0ABF94C4870
:103EB00001784CA000F0A6F95048D0E9002150A0AC
:103EC00000F0A0F95548016855A000F09BF9594849
:103ED000017859A000F096F95C4801785CA000F0E8
:103EE00091F96048017860A000F08CF9634C20687B
:103EF00090F82A1062A000F085F92068416C67A054
:103F000000F080F9002010BD10B56CA000F0F0FAB0
:103F100001216FA000F076F9052173A000F072F97D
:103F200078A000F0E5FA7C4800F0DEFA7BA000F013
:103F3000DFFA14217EA000F065F9052181A000F0D0
:103F400061F9042185A000F05DF9142187A000F03B
:103F500059F93F218AA000F055F94FF47A718EA0EB
:103F600000F050F9102192A000F04CF9082196A021
:103F700000F048F90A219BA000F044F9002010BD90
:103F8000940000205461736B206E756D6265722021
:103F9000203A2025640A00008C0000204350552060
:103FA0007573616765202020203A2025642025252F
:103FB0000A0000004F532056657273696F6E20200F
:103FC000203A2025640A0000BC0000204F535469A9
:103FD0006D65202020202020203A2025640A000042
:103FE000920000204F5352647947727020202020A5
:103FF000203A2025303278680A000000C0000020F6
:104000004F5352647954626C5B5D2020203A202526
:104010003038782D25303878680A00009800002064
:104020004F5343747853774374722020203A2025ED
:10403000640A00008E0000204F53496E744E657371
:1040400074696E67203A2025640A00008F00002002
:104050004F534C6F636B4E657374696E673A2025DE
:10406000640A0000900000204F535072696F43753E
:1040700072202020203A2025640A0000AC00002095
:104080004F535443424375722D3E4F535443425055
:1040900072696F3A2025640A000000004F535443B0
:1040A000424375722D3E4F535443425461736B4EDD
:1040B000616D653A2025730A000000003D3D3D3DDD
:1040C000204150505F434647203D3D3D3D000000AC
:1040D0005741544348444F475F454E41424C452069
:1040E0003D2025640A0000005741544348444F478F
:1040F0005F464545445F54494D45203D2025640AAF
:1041000000000000707265737320616E79206B652A
:1041100079202E2E2E0000002C0100203D3D3D3D3B
:10412000204F535F434647203D3D3D3D000000008A
:104130004F535F4D41585F4556454E5453203D20E7
:1041400025640A004F535F4D41585F4D454D5F5008
:10415000415254203D2025640A0000004F535F4D1A
:1041600041585F5153203D2025640A004F535F4D55
:1041700041585F5441534B53203D2025640A0000B1
:104180004F535F4C4F574553545F5052494F203D5A
:104190002025640A000000004F535F5449434B53ED
:1041A0005F5045525F534543203D2025640A00007F
:1041B0004F535F544D525F4346475F4D4158203D3A
:1041C0002025640A000000004F535F544D525F43A6
:1041D00046475F574845454C5F53495A45203D2067
:1041E00025640A004F535F544D525F4346475F5466
:1041F00049434B535F5045525F534543203D202573
:10420000640A00000FB4044910B503AA029800F034
:104210009BFA10BC5DF814FB4801002070B5044601
:1042200085690068C10601D5302600E02026C00758
:1042300007D070BDD4E9012130469047206A401C68
:1042400020626D1EF6D570BD70B504468569007894
:10425000C00707D170BDD4E9012120209047206A12
:10426000401C20626D1EF6D570BD70B50C4605462B
:10427000012A05D02878800600D5EA69002302E0EB
:10428000012305E05B1C934202D2E05C0028F9D1D7
:10429000A869E618C01AA861286A18442862284646
:1042A000FFF7BCFF04E0D5E9012114F8010B9047AA
:1042B000B442F8D32846FFF7C7FF70BD2DE9F0419F
:1042C0000646002410687529314616A510D0AFF3B4
:1042D0000080002802DA404213A507E031688A070F
:1042E00001D512A502E0490704D511A5012401E07A
:1042F000AFF3008000210A2206F1240709E0B0FB99
:10430000F2FCB0FBF2F302FB1C003030785418468C
:10431000491C0028F3D123462A463046BDE8F04127
:1043200000F0A3B9000000002D0000002B000000E9
:1043300020000000F0B40D460188090502D51B4C91
:104340007C4402E0194C7C440E34002100F124032B
:1043500005E002F00F061209A65D5E54491C002A12
:10436000F7D102780023120704D5702D06D009B1C9
:10437000022311342246F0BC00F077B90123103437
:10438000F8E770B504460D4621461068AFF300808B
:10439000024629462046BDE87040CBE70368126814
:1043A00043F0200303600823C361C3E7E80700006C
:1043B0002DE9F05F894604464FF0000ADFF824B18A
:1043C000FB44C0F820A02046E168884700287DD043
:1043D000252806D0D4E901219047206A401C20629C
:1043E000F1E700255F462046E16888472028064619
:1043F00007DB312E05D2B81910F8200C08B105439F
:10440000F1E7A80701D525F00405C4F81CA0002792
:10441000C4F818A02A2E09D0304600F02CFA38B380
:1044200004EB8708303EC8F8186019E059F8041BFF
:10443000204604EB87029161E1688847012F064618
:1044400018D1E069002820DA25F020051DE0D8F811
:10445000180000EB800006EB40003038C8F8180068
:104460002046E1688847064600F005FA0028EED1AC
:10447000012F0AD02E2E08D12046E16888477F1CE4
:104480000646022F45F02005C4DBA069002803DAA8
:10449000404245F00105A061E80701D025F0100574
:1044A000A6B1A6F14100192802D8203645F40065CE
:1044B0004A463146204625604D46FBF771FE60B105
:1044C000012807D0ED1D25F0070000E007E000F10E
:1044D000080978E705F1040975E730467AE7206AAC
:1044E000BDE8F09F90070000FCF791BCFCF772BCA0
:1044F00010B5044603E0FCF76DFC401C09D014F82D
:10450000010B05490028F6D1BDE810400A20FCF750
:1045100061BC4FF0FF3010BD4801002010B5431CB6
:1045200002E010F8011B71B18107FAD14FF001329E
:1045300002C88C1A8C4314EAC211F9D0C01A0A06B8
:1045400003D0C01E10BDC01A10BD0A0401D0801EC9
:1045500010BD0902FCD0401E10BD032A40F230807D
:1045600010F0030C00F0158011F8013BBCF1020FB4
:10457000624498BF11F801CB00F8013B38BF11F835
:10458000013BA2F1040298BF00F801CB38BF00F84C
:10459000013B11F0030300F0E980083AC0F0088005
:1045A00051F8043B083A51F804CBA0E80810F5E7AD
:1045B000121D5CBF51F8043B40F8043BAFF3008090
:1045C000D20724BF11F8013B11F801CB48BF11F805
:1045D000012B24BF00F8013B00F801CB48BF00F8D5
:1045E000012B70474FF0013C50F8042B51F8043B6D
:1045F0009A4221D1A2EB0C03934313EACC1317D1B7
:1046000050F8042B51F8043B9A4215D1A2EB0C034D
:10461000934313EACC130BD150F8042B51F8043B0D
:104620009A4209D1A2EB0C03934313EACC13DBD0DB
:104630004FF00000704700BFD01A01BAB1FA81F103
:1046400001F0180122FA01F0CB40C1F12001DBB2E8
:10465000C0B2C01A2CFA01F3D11A914311EAC31166
:10466000E6D170477047704770472DE9F0470D4617
:1046700099469246044600F124080168880604D54C
:10468000E06921F01001216000E00120A84201DD75
:10469000471B00E00027A1697A1902EB0900081AFC
:1046A000A0612078C00602D42046FFF7B7FD00269F
:1046B00008E0D4E901211AF806009047206A401C5E
:1046C000761C20624E45F4DB2078C0060AD52046D1
:1046D000FFF7A4FD06E0D4E9012130209047206ACD
:1046E000401C2062381EA7F10107F4DC07E0D4E982
:1046F000012118F805009047206A401C2062281EFE
:10470000A5F10105F3DC2046FFF79EFD20780006A9
:1047100002D50220BDE8F0870120FBE710B5436910
:1047200013B1AFF3008001E0FFF79FFD012010BD42
:10473000127800F124010A7000224A700122EDE78C
:1047400011684FF0FF32E9E7074B70B50D467B4427
:1047500000F043F80446284600F052F810B14FF03C
:10476000FF3070BD204670BD83C6FFFF10B5203AF4
:10477000C0F00B80B1E81850203AA0E81850B1E81A
:104780001850A0E81850BFF4F5AF5FEA027C24BFD0
:10479000B1E81850A0E8185044BF18C918C0BDE8C7
:1047A00010405FEA827C24BF51F8043B40F8043B90
:1047B00008BF7047D20728BF31F8023B48BF11F845
:1047C000012B28BF20F8023B48BF00F8012B70479F
:1047D00001694A1C02610878704700B58FB0CDE9C5
:1047E00001310021059105497944CDE903101146B5
:1047F0006846FFF7DDFD0FB000BD0000E5FFFFFFDD
:10480000007B00F080007047754600F029F8AE4646
:1048100005006946534620F00700854618B020B5CC
:10482000FCF74EF9BDE820404FF000064FF00007BE
:104830004FF000084FF0000B21F00701AC46ACE848
:10484000C009ACE8C009ACE8C009ACE8C0098D46B5
:1048500070470446AFF300802046FBF7BCFC000025
:1048600000487047DC1B002001491820ABBEFEE762
:1048700026000200704730380A2801D20120704714
:1048800000207047FF00000001000200010003004B
:104890000100020001000400010002000100030009
:1048A00001000200010005000100020001000300F8
:1048B00001000200010004000100020001000300E9
:1048C00001000200010006000100020001000300D7
:1048D00001000200010004000100020001000300C9
:1048E00001000200010005000100020001000300B8
:1048F00001000200010004000100020001000300A9
:104900000100020001000700010002000100030095
:104910000100020001000400010002000100030088
:104920000100020001000500010002000100030077
:104930000100020001000400010002000100030068
:104940000100020001000600010002000100030056
:104950000100020001000400010002000100030048
:104960000100020001000500010002000100030037
:104970000100020001000400010002000100030028
:10498000010002000100000001000000204D0008AD
:104990003138000800000000244D0008010000002C
:1049A000384D0008E3380008000000003C4D0008C6
:1049B00001000000704D00084B39000800000000A5
:1049C000784D000801000000E04D0008593900084A
:1049D00000000000884D000801000000F84D0008AC
:1049E0001F3A000800000000E84D00080100000028
:1049F000104E00087D3A000800000000004E00083C
:104A000000000000184E0008D40000200000000044
:104A100000000000010000001C4E0008793B000867
:104A2000000000000000000001000000244E00080B
:104A3000BB3B000800000000000000000100000077
:104A40002C4E0008C73B00080000000000000000DA
:104A500001000000344E0008D33B000800000000B5
:104A60000000000000000000384E0008F0000020A8
:104A7000000000000000000000000000404E0008A0
:104A80000001002000000000000000000100000004
:104A9000484E0008693D00080000000000000000CA
:104AA00001000000504E00087D3D0008000000009D
:104AB0000000000001000000584E0008913D000871
:104AC0000000000000000000010000005C4E000833
:104AD000FB3D000800000000604E000800000000E0
:104AE000704E00080C0100200000000000000000D3
:104AF00001000000984F0008853E000800000000FB
:104B000000000000010000009C4F0008093F000861
:104B10000000000000000000000000005C4E0008E3
:104B2000200100200000000000000000303132337E
:104B300034353637383941424344454640305800D1
:104B40003031323334353637383961626364656603
:104B5000403078000400000800000000000000025F
:104B600000010000100000005B657869745D0000C2
:104B70007C2056657273696F6E202020203A205683
:104B800025303364202020202020202020202020B9
:104B90002020202020202020202020202020202015
:104BA0002020202020202020202020202020202005
:104BB00020202020207C0A002B2D2D2D2D2D2D2D69
:104BC0002D2D2D2D2D2D2D2D2D2D2D2D2D2D2D2D15
:104BD0002D2D2D2D2D2D2D2D2D2D2D2D2D2D2D2D05
:104BE0002D2D2D2D2D2D2D2D2D2D2D2D2D2D2D2DF5
:104BF0002D2D2D2D2D2D2D2D2D2D2D2D2B0000006E
:104C00002B2D2D2D2D2D2D2D2D2D2D2D2D2D2D2DD6
:104C10002D2D2D2D2D2D2D2D2D2D5B2074696E7993
:104C200053482074657374205D2D2D2D2D2D2D2D51
:104C30002D2D2D2D2D2D2D2D2D2D2D2D2D2D2D2DA4
:104C40002D2D2D2D2B0000007C2020202020202029
:104C50002020202020202020202020202020202054
:104C60002020202020202020202020202020202044
:104C70002020202020202020202020202020202034
:104C80002020202020202020202020207C00000028
:104C90007C20417574686F7220202020203A20C04B
:104CA000EEB4BABEFD20202020202020202020208D
:104CB00020202020202020202020202020202020F4
:104CC00020202020202020202020202020202020E4
:104CD000202020207C0000007C20452D6D61696C27
:104CE00020202020203A20686576616B655F6C6328
:104CF0006A403132362E636F6D2020202020202024
:104D000020202020202020202020202020202020A3
:104D10002020202020202020202020207C00000097
:104D2000636400006368616E67652064697265632F
:104D3000746F7279000000006C7300006C6973740A
:104D400020616C6C20656C656D656E7473206F6698
:104D50002063757272656E74206F72207370656364
:104D60006966696564206469726365746F7279004D
:104D7000636C65616E000000636C65616E20736337
:104D80007265656E00000000647261772074726560
:104D900065206F662063757272656E74206F722075
:104DA00073706563696669656420646972636574BC
:104DB0006F727920746F2074656C6C2075736572E6
:104DC000207768617420696E736964650A55415380
:104DD0004745203A2074726565205B6469725D0006
:104DE000747265650000000068656C7020636F6D0B
:104DF0006D616E640000000068656C70000000006A
:104E00006578697420636F6E736F6C6500000000D5
:104E1000657869740000000062696E0068656C6CFA
:104E20006F0000006E616D6500000000656D6169D6
:104E30006C0000007171000061626F757400000009
:104E4000726F6F740000000072657365740000007B
:104E500068616C7400000000707300006462670099
:104E6000B2E9BFB4B5F7CAD4D0C5CFA200000000E4
:104E70007362696E000000002B2D2D2D2D2B2D2D22
:104E80002D2D2D2D2D2D2D2D2D2D2D2D2D2D2D2D52
:104E90002B2D2D2D2D2D2D2B2D2D2D2D2D2D2D2D46
:104EA0002D2B2D2D2D2D2D2D2D2D2D2B2D2D2D2D36
:104EB0002D2D2D2D2D2B2D2D2D2D2D2D2D2D2B0053
:104EC0003D3D3D3D3D3D3D3D3D3D3D3D3D3D3D3D12
:104ED0003D3D3D3D3D3D3D3D3D3D3D3D3D3D3D3D02
:104EE0003D3D3D3D3D3D3D3D3D3D3D3D3D3D3D3DF2
:104EF0003D3D3D3D3D3D3D3D3D3D3D3D3D3D3D3DE2
:104F00003D3D3D3D3D3D3D002B2D2D2D2D2B2D2D92
:104F10002D2D2D2D2D2D2D2D2D2D2D2D2D2D2D2DC1
:104F20002B2D2D2D2D2D2D2B2D2D2D2D2D2D2D2DB5
:104F30002D2B2D2D2D2D2D2D2D2D2D2B2D2D2D2DA5
:104F40002D2D2D2D2D2B2D2D2D2D2D2D2D2D7C0071
:104F50007C7072696F7C202020202020206E616D83
:104F600065202020202020207C7374617475737C60
:104F7000202064656C617920207C2053746B536918
:104F80007A65207C2053746B55736564207C537460
:104F90006B55736167657C006F7300006366670023
:104FA000C04F0008000000202C010000280100086C
:104FB000305000082C01002014210000840100085A
:104FC00045020406082D0102030404B60607080979
:104FD000016914411399111B08D304011413B11270
:104FE0001B08E7040114139D131B08B10401144BA3
:104FF000684B18024B791388491B089C041AB004AB
:105000001AC4041AD8041AEC044113284A1B083C99
:10501000041A5004411A14085A640C1A8C081AA075
:10502000041AB4045AC8141AF0085A04A400000060
:04000005080000ED02
:00000001FF
